:100000000C9471000C9499000C9499000C94990034
:100010000C9499000C9499000C9499000C949900FC
:100020000C9499000C9499000C9499000C949900EC
:100030000C9499000C9499000C9499000C949900DC
:100040000C9466040C9499000C944F030C942903AF
:100050000C9499000C9499000C9499000C949900BC
:100060000C9499000C949900050D070D090D0B0DCA
:100070000D0D0F0D110DA305A605A905AC05AF05C6
:10008000B205B50500000000240027002A0000008A
:100090000000250028002B0000000000230026009F
:1000A00029000404040404040404020202020202FB
:1000B000030303030303010204081020408001022C
:1000C00004081020010204081020000000080002AB
:1000D0000100000304070000000000000000621699
:1000E0005E1611241FBECFEFD8E0DEBFCDBF23E0E8
:1000F000A6EDB2E001C01D92A93EB207E1F712E001
:10010000A0E0B1E0ECEDF3E302C005900D92A63D56
:10011000B107D9F710E0C0E7D0E004C02197FE0195
:100120000E94B717CF36D107C9F70E94DC0A0C949A
:10013000E1190C940000CF92DF92EF92FF920F939F
:100140001F93CF93DF936C017A018B01C0E0D0E065
:10015000CE15DF0589F0D8016D918D01D601ED91A5
:10016000FC910190F081E02DC6010995892B11F4D5
:100170007E0102C02196ECCFC701DF91CF911F9184
:100180000F91FF90EF90DF90CF900895FC01538D79
:10019000448D252F30E0842F90E0821B930B541761
:1001A00010F0CF96089501970895FC01918D828DEE
:1001B000981761F0828DDF01A80FB11D5D968C91BB
:1001C000928D9F5F9F73928F90E008958FEF9FEFC6
:1001D0000895FC01918D828D981731F0828DE80F82
:1001E000F11D858D90E008958FEF9FEF0895FC013C
:1001F000918D228D892F90E0805C9F4F821B910909
:100200008F73992708958BE193E00E94F70021E016
:10021000892B09F420E0822F0895FC01848DDF01F1
:10022000A80FB11DA35ABF4F2C91848D90E0019669
:100230008F739927848FA689B7892C93A089B18958
:100240008C9180648C93938D848D981306C0028862
:10025000F389E02D80818F7D80830895EF92FF9256
:100260000F931F93CF93DF93EC0181E0888F9B8DD9
:100270008C8D981305C0E889F989808185FD24C09B
:10028000F62E0B8D10E00F5F1F4F0F731127E02E1E
:100290008C8DE8120CC00FB607FCFACFE889F989FB
:1002A000808185FFF5CFCE010E940D01F1CF8B8DAE
:1002B000FE01E80FF11DE35AFF4FF0820B8FEA8930
:1002C000FB898081806207C0EE89FF896083E889AD
:1002D000F98980818064808381E090E0DF91CF9113
:1002E0001F910F91FF90EF900895CF93DF93EC0152
:1002F000888D8823C9F0EA89FB89808185FD05C046
:10030000A889B9898C9186FD0FC00FB607FCF5CF7F
:10031000808185FFF2CFA889B9898C9185FFEDCFC7
:10032000CE010E940D01E7CFDF91CF91089580E0CB
:1003300090E0892B29F00E94030181110C940000A8
:1003400008953FB7F8948091170390911803A091F6
:100350001903B0911A0326B5A89B05C02F3F19F0C9
:100360000196A11DB11D3FBFBA2FA92F982F882735
:10037000820F911DA11DB11DBC01CD0142E0660F90
:10038000771F881F991F4A95D1F70895089580E037
:1003900090E008950E94C3196115710579F0FB0181
:1003A00001900020E9F73197AF01461B570BDC01A4
:1003B000ED91FC910280F381E02D099480E090E0C2
:1003C0000895FC0180819181009711F00C94C7166B
:1003D00060E070E0CB010895FC0124813581232B7E
:1003E00031F421E061157105A1F0FB0108C0FC01A9
:1003F000808191816115710531F421E0FC018081DA
:10040000882339F005C00E94D11921E0892B09F019
:1004100020E0822F08950F931F93CF93DF93EC0179
:1004200088819981009729F02A813B812617370717
:1004300088F48B016F5F7F4F0E94F918009761F07D
:10044000998388831B830A832C813D81232B11F49C
:10045000FC01108281E001C080E0DF91CF911F910B
:100460000F910895EF92FF920F931F93CF93DF9315
:10047000EC017B018A01BA010E940B0228813981BB
:1004800081110DC02115310519F0C9010E946118B3
:10049000198218821D821C821B821A8206C01D834B
:1004A0000C83B701C9010E94DA19CE01DF91CF9107
:1004B0001F910F91FF90EF900895CF93DF93EC0180
:1004C0006115710559F0FB0101900020E9F73197A2
:1004D000AF01461B570B0E9432020CC088819981E4
:1004E000009711F00E946118198218821D821C82E7
:1004F0001B821A82CE01DF91CF910895FC01808189
:1005000091810C946118FC01118210821382128275
:10051000158214826115710551F0FB0101900020D4
:10052000E9F73197AF01461B570B0C94320208953F
:10053000BF92CF92DF92EF92FF920F931F93CF93D0
:10054000DF937C016B018A01E9012417350720F450
:10055000812F8901C42FD82F65E771E0C7010E9460
:100560008302D60114968D919C911597081719074F
:10057000D0F48C179D0708F4EC01D601ED91FC91A5
:100580001197EC0FFD1FB08010824D915C91BA0164
:10059000600F711FC7010E945D02D601ED91FC91B1
:1005A000EC0FFD1FB082C701DF91CF911F910F911A
:1005B000FF90EF90DF90CF90BF9008954F925F92A1
:1005C0006F927F92EF92FF920F931F93CF93DF93DF
:1005D000CDB7DEB7A1970FB6F894DEBF0FBECDBF83
:1005E0007C01FA01CB0119A2223008F42AE08E0125
:1005F0000F5D1F4F422E512C612C712CBF01A301A6
:1006000092010E947617F901CA01015011096A305E
:1006100014F4605D01C0695CD8016C93232B242B1A
:10062000252B61F7B801C7010E94CC01A1960FB636
:10063000F894DEBF0FBECDBFDF91CF911F910F9118
:10064000FF90EF907F906F905F904F9008950C9483
:10065000CC011F920F920FB60F9211242F933F934C
:100660004F935F936F937F938F939F93AF93BF93BA
:10067000EF93FF938BE193E00E940D01FF91EF91C7
:10068000BF91AF919F918F917F916F915F914F91AA
:100690003F912F910F900FBE0F901F9018951F92B2
:1006A0000F920FB60F9211242F938F939F93EF9376
:1006B000FF93E0912B03F0912C038081E0913103B3
:1006C000F091320382FD12C09081809134038F5FDC
:1006D0008F7320913503821751F0E0913403F0E0DD
:1006E000E55EFC4F958F8093340301C08081FF91BC
:1006F000EF919F918F912F910F900FBE0F901F90B0
:100700001895833081F028F4813099F08230A1F07F
:1007100008958730A9F08830B9F08430D1F4809101
:1007200080008F7D03C0809180008F778093800050
:10073000089584B58F7702C084B58F7D84BD0895F8
:100740008091B0008F7703C08091B0008F7D80933F
:10075000B00008951F93CF93DF93282F30E0F90165
:10076000E653FF4F8491F901EA54FF4FD491F90108
:10077000EE55FF4FC491CC23C9F0162F81110E9472
:100780008103EC2FF0E0EE0FFF1FE257FF4FA59122
:10079000B4918FB7F894111105C09C91ED2FE0959D
:1007A000E92302C0EC91ED2BEC938FBFDF91CF9149
:1007B0001F910895CF93DF93EC0160E08E810E943A
:1007C000AA0361E08E810E94AA0360E08E810E94EC
:1007D000AA038BE891E00197F1F7DF91CF9108959B
:1007E000CF93DF9390E0FC01EA54FF4F2491FC018A
:1007F000EE55FF4F8491882361F190E0880F991F97
:10080000FC01EC57FF4FC591D491FC01E257FF4F1B
:10081000A591B491611109C09FB7F8948881209582
:1008200082238883EC912E230BC0623061F49FB742
:10083000F8943881822F809583238883EC912E2B26
:100840002C939FBF06C08FB7F894E8812E2B288386
:100850008FBFDF91CF9108958F929F92AF92BF92F9
:10086000CF92DF92EF92FF926B017C010E94A10177
:100870004B015C01C114D104E104F104F1F00E94C8
:10088000A101DC01CB0188199909AA09BB09883E9D
:100890009340A105B10570F321E0C21AD108E10827
:1008A000F10888EE880E83E0981EA11CB11CC114CB
:1008B000D104E104F10419F7DDCFFF90EF90DF9050
:1008C000CF90BF90AF909F908F9008951F920F92FE
:1008D0000FB60F9211242F933F938F939F93AF9353
:1008E000BF938091E1039091E203A091E303B09163
:1008F000E4033091160323E0230F2D3720F40196F3
:10090000A11DB11D05C026E8230F0296A11DB11D32
:10091000209316038093E1039093E203A093E303F3
:10092000B093E4038091170390911803A0911903E9
:10093000B0911A030196A11DB11D809317039093E6
:100940001803A0931903B0931A03BF91AF919F911D
:100950008F913F912F910F900FBE0F901F90189580
:10096000CF92DF92EF92FF920F931F93CF93DF937B
:100970007C016C0187E0C80ED11CC0E0D0E0062FDE
:1009800010E0B8010C2E02C0759567950A94E2F745
:100990006170F60181916F010E94AA032196C43013
:1009A000D10579F7C701DF91CF911F910F91FF908A
:1009B000EF90DF90CF900C94DA03CF92DF92EF921A
:1009C000FF920F931F93CF93DF93EC01F62E642FCA
:1009D0008C810E94AA038D818F3F19F060E00E94F4
:1009E000AA038F850F2D10E084FF25C06E0187E0DC
:1009F000C80ED11CE12CF12CB8010E2C02C075954B
:100A000067950A94E2F76170F60181916F010E9487
:100A1000AA03FFEFEF1AFF0A88E0E816F10461F776
:100A2000CE01DF91CF911F910F91FF90EF90DF905A
:100A3000CF900C94DA03B80184E0759567958A9598
:100A4000E1F7CE010E94B0046F2DCE01DF91CF916E
:100A50001F910F91FF90EF90DF90CF900C94B00416
:100A600041E00E94DD0481E090E0089540E00C94B4
:100A7000DD0461E00E9436058BE39FE10197F1F709
:100A800008950F931F93CF93DF931F92CDB7DEB7D7
:100A90008C0169830E9403176981681741F0C801BE
:100AA0000F90DF91CF911F910F910C940B170F9026
:100AB000DF91CF911F910F9108950C940317CF935D
:100AC000DF93EC0161E08BE00E94AA03BE01DD0F21
:100AD000880B990B0E942C0460E08BE0DF91CF9192
:100AE0000C94AA036817790744F49C01261B370B62
:100AF00081E02630310544F006C0681B790B81E0A7
:100B0000663071050CF080E008950F931F93CF932A
:100B1000DF93CDB7DEB728970FB6F894DEBF0FBED0
:100B2000CDBF8C0165E771E00E9483020E94E50859
:100B3000892F90E0FC013197E730F105D8F4E55CAE
:100B4000FF4F0C94B7176CE372E011C066E472E0DB
:100B50000EC061E572E00BC06CE572E008C067E6AC
:100B600072E005C066E771E002C06EE771E0C8019F
:100B70000E945D02C80128960FB6F894DEBF0FBE32
:100B8000CDBFDF91CF911F910F9108950F931F93C8
:100B9000CF93DF93CDB7DEB728970FB6F894DEBFBB
:100BA0000FBECDBF8091D80281112AC00E94E508F6
:100BB000532F293008F18CE3289FD00111242CE316
:100BC00030E00E94BD17ECE35E9F90011124890183
:100BD000330F220B330BDC01CB01800F911FA21FBF
:100BE000B31F840F911DA11DB11DBC01CD016F5814
:100BF0007E478109910917C060E070E0CB0113C006
:100C00002FB7F8946091E1037091E2038091E303C0
:100C10009091E4032FBF28EE33E040E050E00E94C3
:100C20007617CA01B90128960FB6F894DEBF0FBE39
:100C3000CDBFDF91CF911F910F9108956F927F9259
:100C40008F929F92BF92CF92DF92EF92FF920F937B
:100C50001F93CF93DF93C1E08CE2C82EDD24D394A1
:100C6000E12CF12C08EE13E01092E7021092D90269
:100C7000C093E402C093E302C093E202C093E10296
:100C8000C093E002C093DF02C093DE02C093DD0296
:100C9000C093DC02C093DB02C093DA02C093000170
:100CA0001092120310921303109214031092150362
:100CB00080E090E00E945D05B82E90E09093F702EE
:100CC0008093F60281E090E00E945D05D82F90E0CD
:100CD0009093F5028093F40282E090E00E945D051B
:100CE000682E712C709211036092100383E090E0E3
:100CF0000E945D05882E912C90920F0380920E0326
:100D000084E090E00E945D0591E0811101C090E0D7
:100D100090930D03C092EC02D092ED02E092EE02AD
:100D2000F092EF02609EC001619E900D709E900D4A
:100D300011249093F9028093F802809EC001819E55
:100D4000900D909E900D11249093E6028093E50201
:100D50002CE3B29EC0011124092E000CAA0BBB0B80
:100D60008093F0029093F102A093F202B093F30209
:100D70002CE3D29FC0011124092E000CAA0BBB0B3F
:100D80008093E8029093E902A093EA02B093EB0209
:100D90008091D6029091D702853728E0920709F01A
:100DA00081C080E00E94B60961E772E083EC93E0C5
:100DB0000E94270381E00E94B6096CE772E083EC91
:100DC00093E00E94270360ED77E080E090E00E94CE
:100DD0002C0483EC93E00E94390580E00E94B60960
:100DE00064E872E083EC93E00E94270360ED77E013
:100DF00080E090E00E942C0480910D038823B9F1DB
:100E000083EC93E00E94390580E00E94B60960E916
:100E100072E083EC93E00E94270381E00E94B60910
:100E200060EA72E083EC93E00E94270360ED77E0D4
:100E300080E090E00E942C0483EC93E00E9439054E
:100E400080E00E94B6096EEA72E083EC93E00E94B3
:100E5000270360ED77E080E090E00E942C0483ECB3
:100E600093E00E94390581E08093D80282C080E03F
:100E70000E94B60981E69DE60E94B00981E00E94C9
:100E8000B60985E69AE7DF91CF911F910F91FF9008
:100E9000EF90DF90CF90BF909F908F907F906F905A
:100EA0000C94B009803D974009F063C083EC93E057
:100EB0000E94390580E00E94B6096EEB72E083EC77
:100EC00093E00E94270368EB7BE080E090E00E94C3
:100ED0002C0480910D03882351F280E00E94B60912
:100EE00060E972E083EC93E00E94270381E00E94B6
:100EF000B60960EA72E083EC93E00E94270368EB96
:100F00007BE080E090E00E942C0483EC93E00E9460
:100F1000390580E00E94B6096EEA72E083EC93E046
:100F20000E94270360ED77E080E090E00E942C04AF
:100F300083EC93E00E94390562E086E00E94C909D3
:100F400067E084E00E94C90962E283E00E94C90967
:100F500069E082E00E94C90960E081E00E94C9095D
:100F600060E080E00E94C90961E085E00E94C90953
:100F70007BCEDF91CF911F910F91FF90EF90DF908B
:100F8000CF90BF909F908F907F906F900895EF9239
:100F9000FF920F931F93CF93DF93EC01623018F011
:100FA0008F8588608F876B8B1C8A80E48D8B80E1B6
:100FB0008E8B80E58F8B61E08C810E94F0038D81A8
:100FC0008F3F19F061E00E94F00361E08E810E9482
:100FD000F0037E0187E0E80EF11C00E010E08F8551
:100FE00084FD03C084E090E002C088E090E0081730
:100FF00019074CF461E0F70181917F010E94F00331
:101000000F5F1F4FECCF8BE39DE00197F1F760E09E
:101010008C810E94AA0360E08E810E94AA038D81C8
:101020008F3F19F060E00E94AA036F8564FD1DC028
:1010300063E0CE010E94B0040BE416E4C8010197FE
:10104000F1F763E0CE010E94B004C8010197F1F707
:1010500063E0CE010E94B00483E592E00197F1F7CE
:1010600062E0CE010E94B00416C06062CE010E9410
:1010700036058BE496E40197F1F76F856062CE0147
:101080000E94360583E592E00197F1F76F85606273
:10109000CE010E9436056F856062CE010E94360542
:1010A00084E0888B6CE0CE010E943605CE010E9460
:1010B000390582E0898B66E0CE01DF91CF911F91E7
:1010C0000F91FF90EF900C943605FF920F931F93B2
:1010D000CF93DF9360E08091B9030E94F003C0E0FA
:1010E000D0E0F12C2091B90330E0F901E653FF4F35
:1010F0008491F901EA54FF4F0491F901EE55FF4F35
:101100001491112391F081110E948103E12FF0E0ED
:10111000EE0FFF1FE856FF4FA591B491EC91E0232D
:1011200091E009F490E0292F02C020E030E00C2E7D
:1011300001C0220F0A94EAF7F22A61E08091BA0313
:101140000E94AA0360E08091BA030E94AA0321963C
:10115000C830D10509F0C6CF8F2DDF91CF911F91F7
:101160000F91FF900895EF92FF920F931F93CF93EB
:10117000DF93082F61E08091B9030E94F003F090A3
:10118000BA03E090B903C0E0D0E010E0B8010C2E43
:1011900002C0759567950A94E2F7617077278E2DE6
:1011A0000E94AA0361E08F2D0E94AA0360E08F2DA8
:1011B0000E94AA032196C830D10541F7DF91CF9153
:1011C0001F910F91FF90EF9008950F931F93CF936E
:1011D000DF93CDB7DEB728970FB6F894DEBF0FBE0A
:1011E000CDBF60E08091BA030E94AA0361E08091C4
:1011F000B8030E94AA038FEB0E94B3080BEB13E025
:101200000E946508F80181938F01F3E0033C1F07FA
:10121000B9F760E08091B8030E94AA038091BB03F4
:10122000482F4695469546954E70942F990F990FE5
:10123000490F8F70480F8091BC03382F3695369533
:1012400036953E70932F990F990F390F8F70380F85
:101250008091BD03282F2F7087FF08C085FB992739
:1012600090F97CE0979F200D112409C0807386952A
:1012700086958695982F990F990F890F280F609161
:10128000BE037091BF03E091C0038091C103562F4C
:101290005695569556955E70952F990F990F590F43
:1012A0006F70560F672F6695669566956E70962FD0
:1012B000990F990F690F7F70670F982F92959F7004
:1012C0008F70FAE09F9F800D112490E08053984F1B
:1012D0009F838E83782F8F819E2F28960FB6F89448
:1012E000DEBF0FBECDBFDF91CF911F910F9108954B
:1012F000CF92DF92EF92FF92CF93DF93AB01BC01CD
:1013000077FF23C06A017B01E091C303F091C4031E
:101310000190F081E02D6DE283EC93E00995EC0102
:1013200044275527BA014C195D096E097F092AE047
:1013300083EC93E00E94DE028C0F9D1FDF91CF9122
:10134000FF90EF90DF90CF9008952AE083EC93E038
:10135000DF91CF91FF90EF90DF90CF900C94DE0261
:10136000BC01990F880B990B0C947809843008F014
:1013700083E09091D603891710F08FEF890FE82F43
:10138000F0E0ED53FC4F6489606883EC93E00C94CB
:1013900036050F931F93CF93DF93182F062FC8EBBB
:1013A000D3E060E08A810E94AA0361E088810E9404
:1013B000AA03812F880F80680E94B308802F0E94A3
:1013C000B30860E08881DF91CF911F910F910C9459
:1013D000AA031F93CF93DF93883168F56C3358F5D8
:1013E0004C3348F5C42FD62F1AE0612F0E946A179C
:1013F000692F20E1829F600D112482E00E94C909BB
:101400008D2F612F0E946A17692F20E1829F600D46
:10141000112481E00E94C9098C2F612F0E946A1754
:10142000692F20E1829F600D112480E0DF91CF9130
:101430001F910C94C909DF91CF911F910895FC0170
:10144000448155816081718183EC93E00C949B0011
:10145000CF93DF93CDB7DEB728970FB6F894DEBFF2
:101460000FBECDBF0E94E5083A834B832A3010F4AB
:1014700080E305C0822F6AE00E946A17805D809336
:10148000CC023AE0822F632F0E946A17905D9093FE
:10149000CD028AE38093CE022A812A3010F480E3C1
:1014A00005C0822F632F0E946A17805D8093CF0250
:1014B0003AE0822F632F0E946A17905D9093D002CA
:1014C0008AE38093D1022B812A3010F480E305C097
:1014D000822F632F0E946A17805D8093D202822F31
:1014E0006AE00E946A17905D9093D3021092D40232
:1014F0008CEC92E028960FB6F894DEBF0FBECDBFFD
:10150000DF91CF91089580E480937C0080917A00F0
:10151000806480937A0080917A0086FDFCCF809170
:1015200078002091790090E0922B08952FB7F894DD
:101530008091E1039091E203A091E303B091E40371
:101540002FBF8093230390932403A0932503B0938C
:101550002603E0911B03F0911C030284F385E02D28
:101560008BE193E0099597FF26C02FB7F8948091FF
:10157000E1039091E203A091E303B091E4032FBF54
:101580004091230350912403609125037091260319
:10159000841B950BA60BB70B40911F0350912003A2
:1015A000609121037091220384179507A607B7075E
:1015B00080F28FEF9FEF0895CF93DF93CDB7DEB723
:1015C0006A970FB6F894DEBF0FBECDBF789484B58E
:1015D000826084BD84B5816084BD85B5826085BD2F
:1015E00085B5816085BD80916E00816080936E00BD
:1015F00010928100809181008260809381008091AF
:10160000810081608093810080918000816080935F
:1016100080008091B10084608093B1008091B0001F
:1016200081608093B00080917A00846080937A001A
:1016300080917A00826080937A0080917A00816044
:1016400080937A0080917A00806880937A0010926B
:10165000C100E0912B03F0912C0382E08083E091A4
:101660002703F09128031082E0912903F0912A03C7
:101670008FEC808310923303E0912F03F0913003BD
:1016800086E08083E0912D03F0912E0380818061BC
:101690008083E0912D03F0912E0380818860808308
:1016A000E0912D03F0912E03808180688083E0918A
:1016B0002D03F0912E0380818F7D808368EE73E08F
:1016C00080E090E00E942C0480E090E00E945D05A4
:1016D000482F50E060E070E02AE08BE193E00E9448
:1016E000DE0265E271E08BE193E00E94270381E076
:1016F00090E00E945D05482F50E060E070E02AE035
:101700008BE193E00E94DE0265E271E08BE193E001
:101710000E94270382E090E00E945D05482F50E080
:1017200060E070E02AE08BE193E00E94DE0265E277
:1017300071E08BE193E00E94270383E090E00E9438
:101740005D05482F50E060E070E02AE08BE193E017
:101750000E94DE0262E083E00E94F00362E08DE01E
:101760000E94F00361E08BE00E94F00360E0809152
:10177000BA030E94AA0361E08091B8030E94AA0301
:1017800081E80E94B3080E946508182F60E08091EC
:10179000B8030E94AA03612F6F7780E00E94C909F5
:1017A00060E087E00E94C90962E083EC93E00E9458
:1017B000C7070E94E50829833A834B835C836D83C6
:1017C0007E838F8398878E819F819093D7028093A9
:1017D000D6020E941E060AE0302E8CE3482E512CC1
:1017E000612C712C8BE193E00E94F700181619060A
:1017F0000CF0CEC165E771E0CE0145960E948302F0
:101800000E94960A97FD1BC089831A82098D1A8D42
:101810000F5F1F4FB801CE0145960E940B0288232F
:1018200079F32D893E89898D9A8DBE016F5F7F4F37
:10183000820F931F0E94DA191A8F098FE1CF24E0DB
:1018400030E040E050E0BE016B5E7F4FCE0101967C
:101850000E94980267E271E0CE0101960E94EC01BD
:10186000182FCE0101960E947E02112309F4EEC0CA
:1018700029E030E045E050E0BE016B5E7F4FCE01D5
:1018800001960E949802CE0101960E94E1016B012F
:101890007C012CE030E04AE050E0BE016B5E7F4FFF
:1018A000CE0109960E949802CE0109960E94E1019C
:1018B000062F2FE030E04DE050E0BE016B5E7F4F21
:1018C000CE010F960E949802CE010F960E94E10170
:1018D000162F8FEF810F8F3170F58FEF800F8C30C7
:1018E00050F5C601805D9740883E23E0920718F5C9
:1018F000632D0E946A17692F30E1839F600D1124C8
:1019000086E00E94C909802F632D0E946A17692F03
:1019100040E1849F600D112484E00E94C909812F59
:10192000632D0E946A17692F50E1859F600D112475
:1019300083E00E94C909CE010F960E947E02CE016B
:1019400009960E947E02CE0101960E947E0228E145
:1019500030E046E150E0BE016B5E7F4FCE01019664
:101960000E949802CE0101960E94E101062F25E116
:1019700030E043E150E0BE016B5E7F4FCE0109963F
:101980000E949802CE0109960E94E101162F22E1E1
:1019900030E040E150E0BE016B5E7F4FCE010F961C
:1019A0000E949802CE010F960E94E101862F402FDF
:1019B000612F0E94E909CE010F960E947E02CE019E
:1019C00009960E947E02CE0101960E947E022AE1C3
:1019D00030E049E150E0BE016B5E7F4FCE010196E1
:1019E0000E949802CE0101960E94E1016B017C01E8
:1019F000CE0101960E947E0287E0C816D104A8F4A9
:101A0000F601EC5CFF4F0C94B71761E00BC062E08D
:101A100009C063E007C064E005C065E003C066E09C
:101A200001C067E085E00E94C90983EC93E00E9451
:101A300039056CE271E083EC93E00E94270368EEC5
:101A400073E080E090E00E942C049CC024E030E031
:101A500040E050E0BE016B5E7F4FCE0101960E94D8
:101A6000980268E371E0CE0101960E94EC01182F04
:101A7000CE0101960E947E02112309F45DC027E089
:101A800030E045E050E0BE016B5E7F4FCE01019635
:101A90000E949802CE0101960E94E10180E090E050
:101AA0000E944105CE0101960E947E022AE030E0AC
:101AB00048E050E0BE016B5E7F4FCE0101960E9470
:101AC0009802CE0101960E94E10181E090E00E941F
:101AD0004105CE0101960E947E022DE030E04BE0F0
:101AE00050E0BE016B5E7F4FCE0101960E949802CE
:101AF000CE0101960E94E10182E090E00E94410542
:101B0000CE0101960E947E0220E130E04EE050E0DE
:101B1000BE016B5E7F4FCE0101960E949802CE01FE
:101B200001960E94E10183E090E00E944105CE0110
:101B300001960E947E0226C06DE371E0CE014596BB
:101B40000E94EC01882311F061E009C062E571E0B8
:101B5000CE0145960E94EC01882331F060E084E0DC
:101B600090E00E9441050EC068E671E0CE01459606
:101B70000E94EC01882331F08091F8029091F902E3
:101B80000E945F050E941E06CE0145960E947E02BD
:101B90000E94830A6CE270E00E947205282E88235E
:101BA00021F183EC93E00E94390580E00E94B609A0
:101BB0000E94280ABC0183EC93E00E94270381E085
:101BC0000E94B609CE0101960E948505CE010196BC
:101BD0000E941F0ACE0101960E947E0268EE73E009
:101BE00080E090E00E942C04D3CF0E94830A6DE72E
:101BF00070E00E947205882309F46FC00E94E50816
:101C0000942E29833A834B835C836D837E838F83F9
:101C10009887E22EF12C032F10E0C42ED12C60ED1A
:101C200077E080E090E00E942C0464E670E080E0C1
:101C300090E00E942C0483EC93E00E94390580E040
:101C40000E94B609C7010E94B00961E771E083EC08
:101C500093E00E942703C8010E94B00961E771E088
:101C600083EC93E00E942703C6010E94B0090E9402
:101C7000830A61E170E00E947205882359F00F5FCA
:101C80001F4F0C331105B1F42FEFE21AF20A00E0F6
:101C900010E010C00E94830A6CE170E00E9472059F
:101CA000882369F00150110928F441E0E41AF10891
:101CB0000BE310E064E670E080E090E0B4CF0E94B7
:101CC000830A6DE770E00E947205882309F4ADCFA6
:101CD000492D602F8E2D0E94E9090E94830A6DE62E
:101CE00071E00E947205882309F456C060ED77E028
:101CF00080E090E00E942C0483EC93E00E94390580
:101D000080E00E94B60962EB71E083EC93E00E94F0
:101D1000270364E670E080E090E00E942C0481E0FC
:101D20000E94B6098091F6029091F7020E94B009D4
:101D300063E771E083EC93E00E9427030E94830A2B
:101D400061E170E00E947205882331F08091F60213
:101D50009091F702019665C20E94830A6CE170E0DF
:101D60000E947205882341F08091F6029091F7025B
:101D7000009711F0019755C20E94830A6DE770E049
:101D80000E947205882329F26091F60280E090E0BB
:101D90000E9441050E941E060E94830A6DE970E0C0
:101DA0000E947205882309F456C060ED77E080E058
:101DB00090E00E942C0483EC93E00E94390580E0BF
:101DC0000E94B60964EA71E083EC93E00E94270365
:101DD00064E670E080E090E00E942C0481E00E94C4
:101DE000B6098091F4029091F5020E94B00963E770
:101DF00071E083EC93E00E9427030E94830A61E173
:101E000070E00E947205882331F08091F402909175
:101E1000F502019611C20E94830A6CE170E00E94F3
:101E20007205882341F08091F4029091F5020097A9
:101E300011F0019701C20E94830A6DE770E00E94D1
:101E40007205882329F26091F40281E090E00E94FB
:101E500041050E941E060E94C605161617061806A2
:101E600019060CF088C10E94C6056B017C01209107
:101E7000F0023091F1024091F2025091F302A7E09A
:101E8000B0E00E9419174B015C012091EC023091E7
:101E9000ED024091EE025091EF02A5E0B0E00E9409
:101EA0001917AB01BC01480D591D6A1D7B1D80919E
:101EB000E8029091E902A091EA02B091EB02480F8A
:101EC000591F6A1F7B1F465F5F4F6F4F7F4F4C1537
:101ED0005D056E057F050CF44EC1CE0101960E9492
:101EE000850566E771E0CE0101960E94EC01811143
:101EF00012C0CE0109960E9485056EE771E0CE0101
:101F000009960E94EC01222423948111212CCE01F8
:101F100009960E947E02CE0101960E947E02222036
:101F200009F429C180910C03811138C00E94B609BF
:101F300064E871E083EC93E00E9427038091F6024D
:101F40009091F7020E94B00961E971E083EC93E09F
:101F50000E94270381E00E94B60964E971E083ECE6
:101F600093E00E9427038091F4029091F5020E9471
:101F7000B00961E971E083EC93E00E94270368EE09
:101F800073E080E090E00E942C0483EC93E00E94D8
:101F9000390581E080930C031092E7028091E702FB
:101FA000811136C00E94C6056B307105810591050F
:101FB00034F48091E5029091E6020E945F05C090A2
:101FC000F002D090F102E090F202F090F302C092A1
:101FD0000803D0920903E0920A03F0920B030E94D7
:101FE000C6056C157D058E059F0564F460EB71E0F8
:101FF0008BED93E00E945D0281E090E090930703F7
:102000008093060381E08093E7021092E4025AC0B5
:102010008091E40281111BC10E94C605C090080393
:10202000D0900903E0900A03F0900B036C157D0536
:102030008E059F050CF40BC10E94C6053AE0C30E45
:10204000D11CE11CF11CC616D706E806F90634F0CF
:102050008091F8029091F9020E945F05C090F00211
:10206000D090F102E090F202F090F3028091EC0245
:102070009091ED02A091EE02B091EF02C80ED91E30
:10208000EA1EFB1EC0920803D0920903E0920A03E5
:10209000F0920B030E94C6056C157D058E059F0509
:1020A00064F462EA71E08BED93E00E945D0282E0ED
:1020B00090E0909307038093060381E08093E4020D
:1020C0001092E302C0900803D0900903E0900A0345
:1020D000F0900B030E94C605A7019601261B370B43
:1020E000480B590BCA01B9012093FE023093FF023D
:1020F0004093000350930103A30192010E9498179B
:102100002093FA023093FB024093FC025093FD02AD
:10211000CA01B9010E94780961E771E083EC93E09C
:102120000E9427032091FA023091FB024091FC02A9
:102130005091FD02A4ECBFEF0E94C7170091FE0270
:102140001091FF022091000330910103600F711F75
:10215000821F931F0E94780965E771E08BED93E081
:102160000E94EC0181115AC068EE73E080E090E0BB
:102170000E942C0453C068EE73E080E090E00E945F
:102180002C0483EC93E00E94390580E00E94B6099C
:102190006DE072E083EC93E00E94270381E00E94EF
:1021A000B60969E172E083EC93E00E94270368EED0
:1021B00073E080E090E00E942C0483EC93E00E94A6
:1021C000390580E00E94B6098091D802811117C0BC
:1021D0000E94280ABC0183EC93E00E94270381E05F
:1021E0000E94B609CE0101960E948505CE01019696
:1021F0000E941F0ACE0101960E947E020FC062E279
:1022000072E083EC93E00E94270381E00E94B6090C
:102210006BE272E083EC93E00E9427030E94970137
:10222000E1CA9093F7028093F60264E670E080E0E2
:1022300090E00E942C046DCD9093F5028093F402FF
:1022400064E670E080E090E00E942C04C1CD8091B3
:10225000E30281115BC00E94C605C0900803D090C4
:102260000903E0900A03F0900B036C157D058E05C1
:102270009F050CF44BC00E94C6054AE0C40ED11C59
:10228000E11CF11CC616D706E806F90634F0809169
:10229000F8029091F9020E945F05C090F002D09080
:1022A000F102E090F202F090F302CC0CDD1CEE1C87
:1022B000FF1C8091EC029091ED02A091EE02B09192
:1022C000EF02C80ED91EEA1EFB1EC0920803D09270
:1022D0000903E0920A03F0920B030E94C6056C15F5
:1022E0007D058E059F0564F46FEA71E08BED93E048
:1022F0000E945D0281E090E09093070380930603C3
:1023000081E08093E3021092E202DCCE8091E2024F
:1023100081110FC00E94C605C0900803D090090328
:10232000E0900A03F0900B036C157D058E059F0568
:10233000ACF48091E10281115CC00E94C605C0909E
:102340000803D0900903E0900A03F0900B036C158A
:102350007D058E059F050CF061C04BC00E94C6052F
:102360005AE0C50ED11CE11CF11CC616D706E806C2
:10237000F90634F08091F8029091F9020E945F050D
:10238000C090F002D090F102E090F202F090F302DF
:102390008091EC029091ED02A091EE02B091EF02DB
:1023A000C80ED91EEA1EFB1ECC0CDD1CEE1CFF1C49
:1023B000C0920803D0920903E0920A03F0920B0343
:1023C0000E94C6056C157D058E059F0564F461EAC3
:1023D00071E08BED93E00E945D0282E090E09093CB
:1023E00007038093060381E08093E2021092E102EA
:1023F00069CE8091E00281116CC00E94C605C09038
:102400000803D0900903E0900A03F0900B036C15C9
:102410007D058E059F050CF071C05BC00E94C6054E
:102420002AE0C20ED11CE11CF11CC616D706E80634
:10243000F90634F08091F8029091F9020E945F054C
:102440002091F0023091F1024091F2025091F3029A
:10245000A3E0B0E00E941917C090EC02D090ED020A
:10246000E090EE02F090EF02CC0CDD1CEE1CFF1CA5
:10247000C60ED71EE81EF91EC0920803D0920903AB
:10248000E0920A03F0920B030E94C6050091E80255
:102490001091E9022091EA023091EB02C00ED11EA8
:1024A000E21EF31EC616D706E806F90664F06EEAC9
:1024B00071E08BED93E00E945D0281E090E09093EB
:1024C00007038093060381E08093E1021092E0020B
:1024D000F9CD8091DF028111C9C00E94C605C0906C
:1024E0000803D0900903E0900A03F0900B036C15E9
:1024F0007D058E059F050CF05EC0B8C00E94C60524
:102500003AE0C30ED11CE11CF11CC616D706E80642
:10251000F90634F08091F8029091F9020E945F056B
:102520002091F0023091F1024091F2025091F302B9
:10253000A3E0B0E00E9419170091EC021091ED02A7
:102540002091EE023091EF02000F111F221F331F66
:10255000DC01CB01800F911FA21FB31FC090E802C6
:10256000D090E902E090EA02F090EB02C80ED91E8A
:10257000EA1EFB1EC0920803D0920903E0920A03F0
:10258000F0920B030E94C6056C157D058E059F0514
:1025900064F46CEB71E08BED93E00E945D0283E0EC
:1025A00090E0909307038093060381E08093E0021C
:1025B0001092DF0287CD0E94C6054AE0C40ED11CEE
:1025C000E11CF11CC616D706E806F90634F0809126
:1025D000E5029091E6020E945F058091F0029091E1
:1025E000F102A091F202B091F302880F991FAA1F85
:1025F000BB1F4091EC025091ED026091EE02709190
:10260000EF02840F951FA61FB71F880F991FAA1FDF
:10261000BB1FC090E802D090E902E090EA02F0907F
:10262000EB02C80ED91EEA1EFB1EC0920803D09210
:102630000903E0920A03F0920B030E94C6056C1591
:102640007D058E059F0564F46BEC71E08BED93E0E6
:102650000E945D0281E090E090930703809306035F
:1026600081E08093DF021092DE022CCD8091DE02A9
:1026700081110FC00E94C605C0900803D0900903C5
:10268000E0900A03F0900B036C157D058E059F0505
:10269000ACF48091DD0281116FC00E94C605C0902C
:1026A0000803D0900903E0900A03F0900B036C1527
:1026B0007D058E059F050CF074C05EC00E94C605A6
:1026C0005AE0C50ED11CE11CF11CC616D706E8065F
:1026D000F90634F08091F8029091F9020E945F05AA
:1026E000C090F002D090F102E090F202F090F3027C
:1026F00062E0CC0CDD1CEE1CFF1C6A95D1F720912A
:10270000EC023091ED024091EE025091EF02A3E015
:10271000B0E00E941917C60ED71EE81EF91E809160
:10272000E8029091E902A091EA02B091EB02C80E92
:10273000D91EEA1EFB1EC0920803D0920903E09244
:102740000A03F0920B030E94C6056C157D058E05E9
:102750009F0564F468ED71E08BED93E00E945D02EB
:1027600082E090E0909307038093060381E08093DA
:10277000DE021092DD02A6CC8091DC028111CEC077
:102780000E94C605C0900803D0900903E0900A0398
:10279000F0900B036C157D058E059F050CF05EC057
:1027A000BDC00E94C6052AE0C20ED11CE11CF11C6E
:1027B000C616D706E806F90634F08091F802909123
:1027C000F9020E945F052091F0023091F1024091E0
:1027D000F2025091F302A5E0B0E00E9419176B01DC
:1027E0007C012091EC023091ED024091EE0250917B
:1027F000EF02A3E0B0E00E941917C60ED71EE81E34
:10280000F91E8091E8029091E902A091EA02B0914C
:10281000EB02C80ED91EEA1EFB1EC0920803D0921E
:102820000903E0920A03F0920B030E94C6056C159F
:102830007D058E059F0564F46CEC71E08BED93E0F3
:102840000E945D0281E090E090930703809306036D
:1028500081E08093DD021092DC0234CC0E94C60538
:102860003AE0C30ED11CE11CF11CC616D706E806DF
:10287000F90634F08091F8029091F9020E945F0508
:102880002091F0023091F1024091F2025091F30256
:10289000A5E0B0E00E9419170091EC021091ED0242
:1028A0002091EE023091EF0252E0000F111F221F23
:1028B000331F5A95D1F7DC01CB01800F911FA21F66
:1028C000B31FC090E802D090E902E090EA02F090D5
:1028D000EB02C80ED91EEA1EFB1EC0920803D0925E
:1028E0000903E0920A03F0920B030E94C6056C15DF
:1028F0007D058E059F0564F469ED71E08BED93E035
:102900000E945D0282E090E09093070380930603AB
:1029100081E08093DC021092DB02D4CB8091DB0259
:1029200081110FC00E94C605C0900803D090090312
:10293000E0900A03F0900B036C157D058E059F0552
:10294000ACF48091DA02811171C00E94C605C0907A
:102950000803D0900903E0900A03F0900B036C1574
:102960007D058E059F050CF076C060C00E94C605EF
:102970004AE0C40ED11CE11CF11CC616D706E806BD
:10298000F90634F08091F8029091F9020E945F05F7
:102990002091F0023091F1024091F2025091F30245
:1029A000A6E0B0E00E9419170091EC021091ED0230
:1029B0002091EE023091EF0242E0000F111F221F22
:1029C000331F4A95D1F7DC01CB01800F911FA21F65
:1029D000B31FC090E802D090E902E090EA02F090C4
:1029E000EB02C80ED91EEA1EFB1EC0920803D0924D
:1029F0000903E0920A03F0920B030E94C6056C15CE
:102A00007D058E059F0564F465EE71E08BED93E026
:102A10000E945D0281E090E090930703809306039B
:102A200081E08093DB021092DA024CCB80910001AE
:102A300081116EC00E94C605C0900803D0900903A2
:102A4000E0900A03F0900B036C157D058E059F0541
:102A50000CF074C05DC00E94C6055AE0C50ED11CC2
:102A6000E11CF11CC616D706E806F90634F0809181
:102A7000F8029091F9020E945F052091F0023091D6
:102A8000F1024091F2025091F302A6E0B0E00E9400
:102A900019176B017C012091EC023091ED024091FD
:102AA000EE025091EF02A5E0B0E00E941917C60EA9
:102AB000D71EE81EF91E8091E8029091E902A091CC
:102AC000EA02B091EB02C80ED91EEA1EFB1EC092AC
:102AD0000803D0920903E0920A03F0920B030E94CC
:102AE000C6056C157D058E059F0564F462EF71E0E7
:102AF0008BED93E00E945D0282E090E090930703EB
:102B00008093060381E08093DA0210920001DACA12
:102B10008091D902882309F48DC00E94C605C09017
:102B20000803D0900903E0900A03F0900B036C15A2
:102B30007D058E059F050CF05EC07CC00E94C60519
:102B40002AE0C20ED11CE11CF11CC616D706E8060D
:102B5000F90634F08091F8029091F9020E945F0525
:102B60002091F0023091F1024091F2025091F30273
:102B7000A7E0B0E00E9419176B017C012091EC02E4
:102B80003091ED024091EE025091EF02A5E0B0E0ED
:102B90000E941917C60ED71EE81EF91E8091E80282
:102BA0009091E902A091EA02B091EB02C80ED91E01
:102BB000EA1EFB1EC0920803D0920903E0920A03AA
:102BC000F0920B030E94C6056C157D058E059F05CE
:102BD00064F46FEF71E08BED93E00E945D0281E0A1
:102BE00090E0909307038093060381E080930001B7
:102BF0008093D90267CA0E94C6053AE0C30ED11C71
:102C0000E11CF11CC616D706E806F90634F08091DF
:102C1000E5029091E6020E945F0583EC93E00E943A
:102C200039051092D90260E177E280E090E00E94DD
:102C30002C0448CA83EC93E00E94390580E00E948E
:102C4000B6098BED93E00E941F0A81E00E94B6094D
:102C500064E372E083EC93E00E9427038091060313
:102C60009091070382309105E9F48091EC029091F4
:102C7000ED02A091EE02B091EF020BC0019709F0B6
:102C800021CA8091F0029091F102A091F202B091DC
:102C9000F3028093020390930303A0930403B09381
:102CA000050310CA8330910549F78091E80290919D
:102CB000E902A091EA02B091EB02EBCF8BED93E039
:102CC0000C947E02CF93DF93EBE1F3E01382128248
:102CD00088EE93E0A0E0B0E084839583A683B78379
:102CE0008BE091E09183808385EC90E095878487E9
:102CF00084EC90E09787868780EC90E0918B808BC6
:102D000081EC90E0938B828B82EC90E0958B848BAE
:102D100086EC90E0978B868B118E128E138E148E1C
:102D200065E771E08BED93E00E948302E3ECF3E052
:102D3000138212828DE191E09183808382E084830B
:102D40008FEF858383E0868384E0878385E08087B7
:102D500086E0818788E0828713861486158616862A
:102D6000178661E0CF010E94C707C8EBD3E08FE070
:102D7000888380E1898381E18A8361E08FE00E941A
:102D8000F00361E08A81DF91CF910C94F0031F93EF
:102D9000FC0199278827BC01E89411911032E9F3CE
:102DA000193010F01E30C8F31B3251F01D3249F4B7
:102DB000689406C00E94EE16610F711D811D911D61
:102DC000119110531A30B0F33EF4909580957095A0
:102DD00061957F4F8F4F9F4F1F910895592F482F17
:102DE000372F262F660F771F881F991F660F771FB3
:102DF000881F991F620F731F841F951F660F771F0F
:102E0000881F991F0895F999FECF92BD81BDF89A48
:102E1000992780B50895262FF999FECF1FBA92BD44
:102E200081BD20BD0FB6F894FA9AF99A0FBE0196AB
:102E300008950E945B17A59F900DB49F900DA49FCD
:102E4000800D911D112408952F923F924F925F9211
:102E50006F927F928F929F92AF92BF92CF92DF92AA
:102E6000EF92FF920F931F93CF93DF93CDB7DEB70F
:102E7000CA1BDB0B0FB6F894DEBF0FBECDBF0994A3
:102E80002A88398848885F846E847D848C849B84FA
:102E9000AA84B984C884DF80EE80FD800C811B8108
:102EA000AA81B981CE0FD11D0FB6F894DEBF0FBE37
:102EB000CDBFED010895A29FB001B39FC001A39FB4
:102EC000700D811D1124911DB29F700D811D112463
:102ED000911D0895991B79E004C0991F961708F079
:102EE000961B881F7A95C9F780950895A1E21A2E3E
:102EF000AA1BBB1BFD010DC0AA1FBB1FEE1FFF1F9E
:102F0000A217B307E407F50720F0A21BB30BE40BED
:102F1000F50B661F771F881F991F1A9469F7609534
:102F20007095809590959B01AC01BD01CF010895EE
:102F3000052E97FB1EF400940E94AF1757FD07D093
:102F40000E94761707FC03D04EF40C94AF175095EF
:102F50004095309521953F4F4F4F5F4F0895909585
:102F60008095709561957F4F8F4F9F4F0895EE0F1D
:102F7000FF1F0590F491E02D09940E945B17B7FFA5
:102F80000895821B930B0895B7FF0C9419170E94A4
:102F90001917821B930B0895CF93DF93823091050D
:102FA00010F482E090E0E091E703F091E80320E084
:102FB00030E0C0E0D0E0309711F1408151814817F6
:102FC0005907C0F04817590761F48281938120970F
:102FD00019F09B838A832BC09093E8038093E703C7
:102FE00026C02115310519F04217530718F49A012C
:102FF000BE01DF01EF010280F381E02DDCCF21155E
:10300000310509F1281B390B2430310590F4129653
:103010008D919C9113976115710521F0FB019383AC
:10302000828304C09093E8038093E703FD01329606
:1030300044C0FD01E20FF31F8193919322503109A7
:103040002D933C933AC02091E5033091E603232B66
:1030500041F420910301309104013093E603209361
:10306000E50320910101309102012115310541F460
:103070002DB73EB74091050150910601241B350B39
:10308000E091E503F091E603E217F307A0F42E1BAD
:103090003F0B2817390778F0AC014E5F5F4F2417BC
:1030A000350748F04E0F5F1F5093E6034093E5034A
:1030B0008193919302C0E0E0F0E0CF01DF91CF91E6
:1030C00008950F931F93CF93DF93009709F48CC05B
:1030D000FC013297138212820091E7031091E803FA
:1030E0000115110581F420813181820F931F2091F8
:1030F000E5033091E6032817390779F5F093E603E5
:10310000E093E50371C0D80140E050E0AE17BF077F
:1031100050F412962D913C911397AD012115310574
:1031200009F1D901F3CF9D01DA0133832283608154
:103130007181860F971F8217930769F4EC0128812C
:103140003981260F371F2E5F3F4F318320838A81BD
:103150009B8193838283452B29F4F093E803E093CA
:10316000E70342C01396FC93EE931297ED01499149
:1031700059919E01240F351FE217F30771F48081E6
:103180009181840F951F029611969C938E93828154
:10319000938113969C938E931297E0E0F0E0D80110
:1031A00012968D919C911397009719F0F8018C015C
:1031B000F6CF8D919C9198012E5F3F4F820F931F08
:1031C0002091E5033091E6032817390769F4309719
:1031D00029F41092E8031092E70302C013821282CE
:1031E0001093E6030093E503DF91CF911F910F91B8
:1031F0000895A0E0B0E0EFEFF8E10C942817EC019F
:10320000009721F4CB010E94CC17B8C0FC01E60F57
:10321000F71F9C0122503109E217F30708F4ACC0F4
:10322000D9010D911C91119706171707B0F00530C1
:10323000110508F49FC0C80104978617970708F482
:1032400099C002501109061B170B019311936D933E
:103250007C93CF010E9461188DC05B01A01AB10A56
:103260004C01800E911EA091E703B091E80340E06D
:1032700050E0E12CF12C109709F44AC0A815B905CB
:10328000D1F56D907C901197630182E0C80ED11C3E
:10329000CA14DB0480F1A3014A195B096A0182E0C8
:1032A000C80ED11C1296BC9012971396AC91B5E043
:1032B000CB16D10440F0B282A38351834083D9015D
:1032C0006D937C930AC00E5F1F4FC301800F911F47
:1032D000F90191838083EB2DFA2FE114F10431F091
:1032E000D7011396FC93EE93129744C0F093E80332
:1032F000E093E7033FC08D919C91119748175907C0
:1033000008F4AC017D0112960D90BC91A02DB3CFB5
:103310008091E5039091E60388159905E1F446173D
:103320005707C8F48091010190910201009741F480
:103330008DB79EB74091050150910601841B950BF6
:10334000E817F907C8F4F093E603E093E503F90101
:10335000718360830FC0CB010E94CC177C01009762
:1033600059F0A801BE010E94C819CE010E9461183F
:10337000C70104C0CE0102C080E090E0CDB7DEB747
:10338000EEE00C94441781E090E0F8940C94E1197D
:10339000FB01DC0102C001900D9241505040D8F772
:1033A0000895FB01DC018D91019080190110D9F382
:1033B000990B0895FB01DC0101900D920020E1F7CB
:1033C000089510E0C0E7D0E004C0FE010E94B717E6
:0C33D0002196C137D107C9F7F894FFCF50
:1033DC00010000E9038000000000002E019B00C6E4
:1033EC00007501F700D500E9000000000030059BD6
:1033FC0000C701C6012C0074696D650064726F20F2
:10340C00646179656E6461006472746E00656E61EE
:10341C00626C655F6261636B75705F6D6574686F1C
:10342C00640064697361626C655F6261636B757083
:10343C005F6D6574686F64006261636B646F6F725B
:10344C00003A0020200053686162617469004B7679
:10345C006972610047616B766574696C69202D2017
:10346C0000577400446964692044617376202D20F0
:10347C000049492044617376656E65626100494973
:10348C00492047616B766574696C690044696469AD
:10349C002044617376656E65626100495620476110
:1034AC006B766574696C6900495620446173766566
:1034BC006E6562610056492047616B766574696C74
:1034CC00690056492044617376656E6562610056E9
:1034DC0049492047616B766574696C690047616B7B
:1034EC00766574696C6562690044617372756C64AD
:1034FC00610065353666613333380032626564309D
:10350C003564610044617263686120004F727368B6
:10351C0061626174690053616D73686162617469A1
:10352C00004F7478736861626174690058757473C4
:10353C006861626174690050617261736B65766970
:10354C000064726F7320766567617200696E6178D2
:10355C00617673006D65206D6974786172697400B1
:10356C00596F76656C20436861727476617A650078
:10357C0044726F20446179656E6465626100393A0A
:10358C003030206F727368616261747A65004261D9
:10359C0074617269612064616A646100787878781A
:0635AC0078787878000039
:00000001FF
